:100000000C942A000C9447000C9447000C94470071
:100010000C9447000C9447000C9447000C94470044
:100020000C9447000C9447000C9447000C94470034
:100030000C9447000C940B010C9447000C9447005F
:100040000C9447000C9447000C9447000C94470014
:100050000C94470011241FBECFE5D8E0DEBFCDBF12
:1000600012E0A0E6B0E0ECE1F5E102C005900D92EF
:10007000A235B107D9F723E0A2E5B2E001C01D9295
:10008000AB37B207E1F70E94EC020C948C0A0C9497
:10009000000088BB82B38F7982BB949A0000949849
:1000A0008DEE92E00197F1F700C00000089588BB43
:1000B000959882B3806582BB0000949889EF90E0A8
:1000C0000197F1F700C00000089581B3806781BBFC
:1000D0008FEF87BB87E893E10197F1F700C000003D
:1000E00088E30E9449008CE00E94490086E00E945B
:1000F000490081E00E94490080E80E94490008957B
:10010000CF93DF93EC018881882331F021960E9400
:10011000570089918111FBCFDF91CF910895CF9343
:10012000DF93EA01813031F4862F8F7080680E945E
:10013000490007C0823029F4862F8F70806C0E949E
:100140004900CE010E948000DF91CF91089581E0A7
:100150000E944900089580E884BF84BF8FE084BB7B
:100160008FEF85BB08958EEF85BB00C083B3807F82
:10017000803E41F0803D41F0803B41F0803741F4CA
:1001800083E407C081E305C082E303C083E301C0C9
:100190008FEF9DEF95BB00C093B3907F903E41F0F1
:1001A000903D41F0903B41F0903739F484E405C034
:1001B00084E303C085E301C086E39BEF95BB00C0E9
:1001C00093B3907F903E41F0903D41F0903B41F0E1
:1001D000903739F485E405C087E303C088E301C0A4
:1001E00089E397EF95BB00C093B3907F903E41F0B9
:1001F000903D41F0903B41F0903739F486E408950A
:1002000081E4089580E3089582E408958EEA90E001
:100210000E94120608951F920F920FB60F9211249A
:100220008F939F93EF93FF93E0917903F0917A037B
:100230008CB1E157FD4F80838091790390917A03CF
:10024000019690937A038093790381E080938E02E4
:10025000FF91EF919F918F910F900FBE0F901F9084
:100260001895EF92FF920F931F93CF93DF93CDB723
:10027000DEB7A3970FB6F894DEBF0FBECDBF8B01DC
:1002800010927A03109279039F938F9388EC90E0F9
:100290009F938F93CE0101967C019F938F930E9431
:1002A0004307C7010E9412068FE493EC0197F1F710
:1002B00000C00000E0917903F0917A03E157FD4F0F
:1002C0000F900F900F900F900F900F9080818E33B2
:1002D000C1F510927A03109279030F2EFFE8EF2EEA
:1002E000F2E0FF2EF02DF70101900020E9F73197A1
:1002F000AF014F58524060E070E0C7010E94F40621
:10030000C8010E9412068AE10E940E069FE52AEEAD
:1003100080E0915020408040E1F700C00000109242
:100320007A0310927903F70101900020E9F73197E1
:10033000AF014F58524060E070E0C7010E94F406E0
:1003400013C08091790390917A03019690937A0378
:1003500080937903E0917903F0917A03E157FD4F9F
:1003600080818E3371F7B5CFA3960FB6F894DEBFB8
:100370000FBECDBFDF91CF911F910F91FF90EF90F6
:100380000895CF93DF9310927A0310927903E0914E
:100390007903F0917A03E157FD4F80818D3049F068
:1003A000E0917903F0917A03E157FD4F80818A3023
:1003B00051F48091790390917A03019690937A0396
:1003C00080937903E4CF80EC0E944900C0E0D0E044
:1003D00019C0E0917903F0917A03E157FD4F8081D4
:1003E0000E9457008091790390917A03019690932F
:1003F0007A03809379032196CF30D10519F480E8F0
:100400000E944900E0917903F0917A03E157FD4F92
:1004100080818D30F1F610927A0310927903EFE823
:10042000F2E001900020E9F73197AF014F585240B8
:1004300060E070E08FE892E00E94F406DF91CF91D7
:1004400008956F927F928F929F92AF92BF92CF92B8
:10045000DF92EF92FF920F931F93CF93DF9300D021
:10046000CDB7DEB7E12CF12C0F2EFFE8CF2EF2E056
:10047000DF2EF02D612C712CF60101900020E9F7A0
:100480003197EF58F240F1F1A3EFB1E01197F1F796
:1004900000C00000BFEFEB1AFB0AD6010D90002050
:1004A000E9F71197AF58B240EA17FB0759F51E1646
:1004B0001F0644F50F2EFFE8AF2EF2E0BF2EF02D01
:1004C0008F0101571D4F862C972C8A818983F50156
:1004D00081915F018A8342E050E066ED70E0CE01D9
:1004E00001960E940407892B51F0C4010196F2E0A5
:1004F0008F16910419F40E94C10113C04C01A0167B
:10050000B10619F789EF90E00197F1F700C00000FC
:100510009FEFE91AF90AA0E6EA16AAEEFA0608F42D
:10052000ABCF0F900F90DF91CF911F910F91FF9064
:10053000EF90DF90CF90BF90AF909F908F907F9083
:100540006F90089580EC0E94490089ED90E00E9430
:1005500012062FE986E891E0215080409040E1F7B3
:1005600000C000006FED70E08FE892E00E9421076C
:10057000892B69F10E94210280EAEFE8F2E0DF01B5
:100580001D928A95E9F7BFE32DE083E0B15020404A
:100590008040E1F700C000000E94A70042EE50E05A
:1005A00060E081E00E948F0080EC0E9449008CEEA8
:1005B00090E00E9412060E9421029FE3ADE0B3E0AA
:1005C0009150A040B040E1F700C00000089587EFCF
:1005D00090E00E948000B6CFCF93DF93CDB7DEB717
:1005E00069970FB6F894DEBF0FBECDBF1FEF1ABBE1
:1005F0001BBA10927A03109279038CE3EDE3F3E0D7
:10060000DF011D928A95E9F70E9465000E94AB0008
:1006100060E875E280E090E00E94E00578944DEF9C
:1006200050E060E081E00E948F00BFEBE7E2F9E07C
:10063000B150E040F040E1F700C000000E94A70088
:100640004EE051E060E081E00E948F000E94A20233
:100650000E94A70084E090E00E94F609AC014F5F81
:100660005F4F9A01A1E8B0E80E945706880F892FD2
:10067000881F990B9195189F9001199F300D112497
:10068000CA01821B930B8C010F5F1F4FB80184E0DE
:1006900090E00E94FC09C8010E94CB0645E050E0B2
:1006A00061E370E0CE010F960E94F40645E050E051
:1006B00061E370E0CE0144960E94F4060E94C606F3
:1006C0008C010E94C60648EE53E0049F9001059FEE
:1006D000300D149F300D1124AC01249FC001259FC3
:1006E000900D349F900D112499231CF491958195C0
:1006F00091099F938F9381E191E09F938F938E0156
:10070000055F1F4F1F930F930E94430744E050E083
:10071000B801CE010F960E9412078F858C8B8889B5
:100720008D8B89898E8BCE0144960E94D6066AE015
:1007300070E00E942106CB01992324F48827992791
:10074000861B970B9F938F9381E191E09F938F93EB
:10075000CE0101969F938F930E94430744E151E09D
:1007600060E081E00E948F0041E251E060E082E0C1
:100770000E948F005FE986E891E0515080409040F0
:10078000E1F700C00000AFE9B6E8E1E0A150B040F9
:10079000E040E1F700C00000FFE32DE043E0F1504E
:1007A00020404040E1F700C000000E94A7000FB6C3
:1007B000F894DEBF0FBECDBF912CDE0111965D0116
:1007C0000F2EF4E6CF2EF0E0DF2EF02D8E010A5F23
:1007D0001F4F402E512E0F2EFCEC2F2EF1E03F2EFE
:1007E000F02D0F2EF2E5EF2EF2E0FF2EF02D6A2E07
:1007F0007B2CE88EF98E30C044E151E060E081E06E
:100800000E948F0041E251E060E082E00E948F0090
:10081000BFE9E6E8F1E0B150E040F040E1F700C0A8
:1008200000002FE946E851E0215040405040E1F7F8
:1008300000C000008FE39DE0A3E081509040A04005
:10084000E1F700C000000E94A7004FE251E060E025
:1008500081E00E948F00F9CF0E94A70042E451E09E
:1008600060E081E00E948F00E7EAF1E63197F1F75E
:1008700000C000000E94B300813409F046C0BF925E
:10088000AF924DE451E05F934F93DF92CF920E947D
:1008900043078AE20E9457009FE9A6E8B1E0915021
:1008A000A040B040E1F700C000000E94A7004DE664
:1008B00051E060E081E00E948F00B6018091A000CD
:1008C0009091A1000E9431010E94A7004EE751E0E3
:1008D00060E081E00E948F00EFE3FDE023E0E15063
:1008E000F0402040E1F700C000000E94A700D601C0
:1008F000E2E31D92EA95E9F70E9406010F900F903E
:100900000F900F900F900F90A7CF823409F0A4CFD3
:1009100083E20E945700FFE926E841E0F1502040C1
:100920004040E1F700C0000081E00E9449008BE8F0
:1009300091E00E948000911018C1812C80EC0E94EF
:100940004900912C0E94B3008F3F39F0F801E90D66
:10095000F11D808393940E9457005FE58AEE90E03A
:10096000515080409040E1F700C00000A3E0A9157D
:1009700048F71A8681E00E944900642D752D862D66
:10098000972D0E94FB06892BC9F48AE991E00E9409
:100990008000DB988BB384618BBBBFE3E2E4FFE0B4
:1009A000B150E040F040E1F700C00000DA980F2EAF
:1009B000F5E08F2EF02D99249394D8C09924939428
:1009C000980C26E0291520F042E04815D0F102C02D
:1009D0009924939481E00E9449004BEA51E060E041
:1009E00081E00E948F004AEB51E060E082E00E94CB
:1009F0008F005FE986E891E0515080409040E1F738
:100A000000C00000AFE9B6E8E1E0A150B040E0402E
:100A1000E1F700C00000FFE926E841E0F150204086
:100A20004040E1F700C000005FE986E891E05150E6
:100A300080409040E1F700C0000081E00E94490042
:100A40008DC0A4E09A124AC01F921F923F922F922B
:100A5000FF92EF920E944307688D798D8091A000EC
:100A60009091A1000E94310146EF51E060E081E0E9
:100A70000E948F004AEB51E060E082E00E948F000C
:100A8000BFE9E6E8F1E0B150E040F040E1F700C036
:100A900000002FE946E851E0215040405040E1F786
:100AA00000C000008FE996E8A1E081509040A0408E
:100AB000E1F700C00000BFE9E6E8F1E0B150E04036
:100AC000F040E1F700C0000081E00E9449000F9073
:100AD0000F900F900F900F900F9040C025E0921252
:100AE0003DC045E052E060E081E00E948F004AEBAB
:100AF00051E060E082E00E948F004FE956E881E01B
:100B0000415050408040E1F700C000009FE9A6E856
:100B1000B1E09150A040B040E1F700C00000EFE923
:100B2000F6E821E0E150F0402040E1F700C000008D
:100B30004FE956E881E0415050408040E1F700C065
:100B4000000081E00E944900DD9A9FE3A2E4BFE03B
:100B50009150A040B040E1F700C000001BBA84E112
:100B600092E00E948000892CE9CE812CEFE9F6E822
:100B700021E0E150F0402040E1F700C000004FE9E3
:100B800056E881E0415050408040E1F700C000004D
:100B90009FE9A6E8B1E09150A040B040E1F700C065
:100BA0000000EFE9F6E821E0E150F0402040E1F7F5
:100BB00000C0000081E00E94490081101DCE4CCE93
:100BC0002AB128692AB920B5266820BDDC01CB01ED
:100BD000880F991FAA1FBB1F880F991FAA1FBB1F31
:100BE0009C01AD01220F331F441F551F220F331FDD
:100BF000441F551F60E472E48FE090E00E943506C8
:100C00008FEF820F89B9DA01C9010197A109B109F2
:100C1000892F9A2FAB2FBB2780BD08958CB95D9B80
:100C2000FECF0895CF93DF93EC018881882331F0C4
:100C300021960E940E0689918111FBCFDF91CF9101
:100C4000089597FB072E16F4009407D077FD09D07E
:100C50000E94660607FC05D03EF4909581959F4F53
:100C60000895709561957F4F0895A1E21A2EAA1BF1
:100C7000BB1BFD010DC0AA1FBB1FEE1FFF1FA2174C
:100C8000B307E407F50720F0A21BB30BE40BF50B49
:100C9000661F771F881F991F1A9469F760957095D2
:100CA000809590959B01AC01BD01CF010895A29F55
:100CB000B001B39FC001A39F700D811D1124911D30
:100CC000B29F700D811D1124911D0895AA1BBB1B9D
:100CD00051E107C0AA1FBB1FA617B70710F0A61B3C
:100CE000B70B881F991F5A95A9F780959095BC015D
:100CF000CD0108958F929F92AF92BF92CF92DF92D3
:100D0000EF92FF92CF93DF93EC01688179818A8122
:100D10009B81611571058105910521F464E279EDEE
:100D20008BE597E02DE133EF41E050E00E94230A8C
:100D300049015A019B01AC01A7EAB1E40E94420AB1
:100D40006B017C01ACEEB4EFA50194010E94500A46
:100D5000DC01CB018C0D9D1DAE1DBF1DB7FF03C077
:100D60000197A109B04888839983AA83BB839F77A1
:100D7000DF91CF91FF90EF90DF90CF90BF90AF9039
:100D80009F908F9008950E947A06089580E690E0E3
:100D90000E947A060895A0E0B0E0809360009093EE
:100DA0006100A0936200B09363000895FC0188275E
:100DB0009927E89421912032E9F3293010F02E3060
:100DC000C8F32B3241F02D3239F4689404C00E94EC
:100DD0003B07820F911D219120532A30C0F31EF44E
:100DE000909581959F4F0895DC0101C06D9341500E
:100DF0005040E0F70895FB01DC018D9101908019CE
:100E00000110D9F3990B0895FB01DC0141505040CA
:100E100030F08D910190801919F40020B9F7881BEA
:100E2000990B0895FB01DC014150504048F00190BE
:100E30000D920020C9F701C01D9241505040E0F7CB
:100E40000895FB0151915523A9F0BF01DC014D919B
:100E500045174111E1F759F4CD010190002049F007
:100E60004D9140154111C9F3FB014111EFCF81E0D4
:100E700090E0019708957AE0979F902D879F802DAD
:100E8000910D11240895AEE0B0E0E9E4F7E00C9490
:100E9000630A0D891E8986E08C831A8309838FEF8C
:100EA0009FE79E838D83AE01475E5F4F6F89788D8C
:100EB000CE0101960E946507EF81F885E00FF11FD2
:100EC00010822E96E4E00C947F0AABE0B0E0EBE6F3
:100ED000F7E00C94550A6C017B018A01FC01178232
:100EE0001682838181FFCCC1CE0101963C01F601BF
:100EF0009381F70193FD859193FF81917F01882371
:100F000009F4BAC1853239F493FD859193FF81913B
:100F10007F01853229F4B60190E00E945C09E7CF99
:100F2000912C212C312CFFE1F315D8F08B3279F084
:100F300038F4803279F08332A1F4232D20611DC072
:100F40008D3261F0803369F4232D216016C0832D2A
:100F50008260382EE32DE4603E2E2AC0F32DF86027
:100F60001DC037FC2DC020ED280F2A3040F08E32F6
:100F7000B9F436FC81C1232D2064322E19C036FE0F
:100F800006C08AE0989E200D1124922E11C0EAE03E
:100F90002E9E200D1124222EF32DF0623F2E08C02C
:100FA0008C3621F4832D8068382E02C0883641F4B7
:100FB000F70193FD859193FF81917F018111B3CF5B
:100FC000982F9F7D9554933028F40C5F1F4F9FE31B
:100FD00099830DC0833631F0833771F0833509F082
:100FE00059C021C0F801808189830E5F1F4F88247A
:100FF0008394912C530113C02801F2E04F0E511C31
:10100000F801A080B18036FE03C0692D70E002C0F7
:101010006FEF7FEFC5010E9451094C018201F32D52
:10102000FF773F2E16C0280122E0420E511CF80126
:10103000A080B18036FE03C0692D70E002C06FEF62
:101040007FEFC5010E9446094C01F32DF0683F2E49
:10105000820133FC1BC0822D90E088169906B0F403
:10106000B60180E290E00E945C092A94F4CFF50179
:1010700037FC859137FE81915F01B60190E00E94B7
:101080005C0921102A9421E0821A910881149104AC
:1010900071F7E8C0843611F0893641F5F80137FE62
:1010A00007C060817181828193810C5F1F4F08C0EE
:1010B00060817181072E000C880B990B0E5F1F4F0A
:1010C000F32DFF763F2E97FF09C090958095709580
:1010D00061957F4F8F4F9F4FF0683F2E2AE030E0A1
:1010E000A3010E949809882E861845C0853731F4DF
:1010F000232D2F7EB22E2AE030E025C0932D997F3C
:10110000B92E8F36C1F018F4883579F0B5C0803724
:1011100019F0883721F0B0C0E92FE061BE2EB4FE8F
:101120000DC0FB2DF460BF2E09C034FE0AC0292F6C
:101130002660B22E06C028E030E005C020E130E095
:1011400002C020E132E0F801B7FE07C06081718182
:10115000828193810C5F1F4F06C06081718180E0A6
:1011600090E00E5F1F4FA3010E949809882E8618F9
:10117000FB2DFF773F2E36FE0DC0232D2E7FA22E96
:10118000891458F434FE0BC032FC09C0832D8E7EC6
:10119000A82E05C0B82CA32C03C0B82C01C0B92CB4
:1011A000A4FE0FC0FE01E80DF11D8081803321F403
:1011B0009A2D997EA92E09C0A2FE06C0B394B394BD
:1011C00004C08A2D867809F0B394A3FC11C0A0FE58
:1011D00006C0B21488F4280C922C9B180EC0B214CE
:1011E00060F4B60180E290E00E945C09B394F7CF0E
:1011F000B21418F42B1802C0982C212CA4FE10C095
:10120000B60180E390E00E945C09A2FE17C0A1FC39
:1012100003C088E790E002C088E590E0B6010CC00A
:101220008A2D867859F0A1FE02C08BE201C080E2CF
:10123000A7FC8DE2B60190E00E945C09891438F4A5
:10124000B60180E390E00E945C099A94F7CF8A94FB
:10125000F301E80DF11D8081B60190E00E945C0968
:101260008110F5CF222009F442CEB60180E290E051
:101270000E945C092A94F6CFF6018681978102C00C
:101280008FEF9FEF2B96E2E10C94710AFC01059021
:10129000615070400110D8F7809590958E0F9F1F78
:1012A0000895FC016150704001900110D8F78095BD
:1012B00090958E0F9F1F08950F931F93CF93DF93E9
:1012C000FB01238121FD03C08FEF9FEF2CC022FF84
:1012D00016C046815781248135814217530744F453
:1012E000A081B1819D012F5F3F4F318320838C937B
:1012F000268137812F5F3F4F3783268314C08B01B0
:10130000EC01FB010084F185E02D0995892BE1F6C4
:10131000D80116968D919C911797019617969C93DC
:101320008E931697CE01DF91CF911F910F91089563
:10133000FA01AA27283051F1203181F1E8946F9306
:101340006E7F6E5F7F4F8F4F9F4FAF4FB1E03ED0AC
:10135000B4E03CD0670F781F891F9A1FA11D680F4A
:10136000791F8A1F911DA11D6A0F711D811D911D7D
:10137000A11D20D009F468943F912AE0269F1124F2
:101380003019305D3193DEF6CF010895462F477056
:10139000405D4193B3E00FD0C9F7F6CF462F4F70B1
:1013A000405D4A3318F0495D31FD4052419302D00F
:1013B000A9F7EACFB4E0A6959795879577956795B5
:1013C000BA95C9F700976105710508959B01AC01B5
:1013D0000A2E06945795479537952795BA95C9F7DC
:1013E000620F731F841F951FA01D0895A8E1B0E030
:1013F00042E050E00C94040A0196272F0E94130A41
:101400000C94120ADC01CB01FC01E199FECF06C06D
:10141000FFBBEEBBE09A31960DB20D9241505040A9
:10142000B8F70895262FE199FECF9FBB8EBBE09AB7
:1014300001970DB2021631F02DBB0FB6F894E29A67
:10144000E19A0FBE0895052E97FB1EF400940E94AA
:101450003A0A57FD07D00E94350607FC03D04EF428
:101460000C943A0A50954095309521953F4F4F4F37
:101470005F4F089590958095709561957F4F8F4F40
:101480009F4F08950E945706A59F900DB49F900D01
:10149000A49F800D911D11240895B7FF0C94420A5A
:1014A0000E94420A821B930B08952F923F924F9203
:1014B0005F926F927F928F929F92AF92BF92CF92E4
:1014C000DF92EF92FF920F931F93CF93DF93CDB7ED
:1014D000DEB7CA1BDB0B0FB6F894DEBF0FBECDBF65
:1014E00009942A88398848885F846E847D848C8436
:1014F0009B84AA84B984C884DF80EE80FD800C813F
:101500001B81AA81B981CE0FD11D0FB6F894DEBF21
:0C1510000FBECDBFED010895F894FFCF91
:10151C00010000002000000000000000000000009E
:10152C0000000000000000000000000000000000AF
:10153C00000000000000000000000000000000009F
:10154C00000000000000000000000000000000008F
:10155C00420241542B434D47443D25640D004154F8
:10156C002B434D4744413D2244454C20414C4C2299
:10157C000D00434D54493A0041542B434D47533DC4
:10158C00222573220D000D0A00415445300D004FE9
:10159C004B0054657874204D6F64650041542B43A7
:1015AC004D47463D310D004572726F720047534DE9
:1015BC0020496E697469616C697A696E670041547F
:1015CC00002564002A3D3E73656E6420636F64657C
:1015DC0000233D3E456E74657220636F6465005058
:1015EC006C7A2072657374617274206D6F64756CA3
:1015FC006500456E746572204D6F646500596F759A
:10160C0072204F545020666F722074686973207377
:10161C00657373696F6E2069732025730053656E53
:10162C0064696E6720636F64652E2E2E2E004D4507
:10163C0053534147452053454E5400456E746572D3
:10164C002050617373776F726400436F72726563BD
:10165C00742050617373776F72640057726F6E678A
:10166C0020436F64653A204120003D3D3D3D3D3DAA
:10167C003D3D3D3D3D3D3D3D3D3D2000536F6D6548
:10168C006F6E6520697320747279696E6720746F50
:10169C002061636365737320796F75722070617359
:1016AC0073776F72640057726F6E6720436F646557
:1016BC003A2042200057726F6E6720436F64653A80
:1016CC00204320005265656E7465722050617373FF
:1016DC00776F7264002B434D4752004E6F206D653F
:1016EC0073736167650041542B434D47523D25642C
:1016FC000D003030393737393830383030393234F2
:02170C003900A2
:00000001FF
